:020000040800F2
:10000000B8C20120E502000805580008D14D0008DB
:10001000015800088D1A0008F56100080000000072
:100020000000000000000000000000006D59000802
:10003000A51C00080000000035580008A159000860
:10004000FF020008FF020008FF020008FF0200088C
:10005000FF020008FF020008A91C0008FF020008B8
:10006000FF020008B51C0008C11C0008FF020008C0
:10007000C11A0008FF020008FF020008FF02000882
:10008000FF020008FF020008FF020008FF0200084C
:10009000911A0008A11A0008FF020008CD1C0008F0
:1000A000FF020008FF020008FF020008FF0200082C
:1000B000BD590008FF020008FF020008FF02000807
:1000C000FF020008FF020008FF020008FF0200080C
:1000D000FF0200085D600008FF020008C56000081C
:1000E000FF020008FF020008FF020008DD590008B7
:1000F000ED590008FF020008FF020008FF02000897
:10010000FF020008FF020008CD590008FF020008A6
:10011000FF020008FF020008FF020008FF020008BB
:10012000FF020008D11A0008E11A0008FF020008C7
:10013000FF020008FF020008FF020008FF0200089B
:10014000B11A0008FF020008FF020008FF020008C1
:10015000FF020008F11A0008011B00088D61000869
:10016000FF020008FF020008FF020008FF0200086B
:10017000FF020008FF020008FF0200080000000064
:10018000FF020008FF02000800F002F800F09BF8F0
:100190000AA090E8000C82448344AAF10107DA45E2
:1001A00001D100F090F8AFF2090EBAE80F0013F099
:1001B000010F18BFFB1A43F001031847A4250100E3
:1001C000C4250100103A24BF78C878C1FAD8520774
:1001D00024BF30C830C144BF04680C6070470000C1
:1001E0000023002400250026103A28BF78C1FBD840
:1001F000520728BF30C148BF0B6070476E2900F01E
:10020000EF83702900F03185662911F0D8826529C5
:1002100011F0D582672911F0D282612911F0D182C3
:1002200003681B0A28BF41F08001692900F004819E
:10023000642900F00181752900F0FE806F2900F02B
:10024000BF84782900F0FD84E92900F05984E4296D
:1002500000F05684F52900F05384EF2900F0BC84A7
:10026000F82900F0FC840368DB0928BF41F0800115
:10027000632901F06381732901F06881E32901F0AA
:100280007381F32901F07881002070471FB511F0C8
:1002900084FA9DE8030000F03FFD01F0EFF904004F
:1002A0000020002110F0D4FC401C606000200021E0
:1002B00010F0B8FCE06000F065FA1FBD10B500203A
:1002C00001F082F910BD01F0ACF91146FFF7DEFF35
:1002D0000FF038FE01F0A2FA03B4FFF7EFFF03BC02
:1002E00000F0F0FC0948804709480047FEE7FEE7B8
:1002F000FEE7FEE7FEE7FEE7FEE7FEE7FEE7FEE7D6
:1003000004480549054A064B70470000A9590008F2
:1003100089010008B8220020B8C20120B87201206B
:10032000B872012053EA020C00F069802DE9F04B0D
:100330004FF00006002B1FBFB3FA83F503FA05F454
:1003400024FA05F65E4012BF1643B2FA82F502FAAD
:1003500005F4C5F120051EBF22FA05FC44EA0C0491
:10036000203556EA044C4FEA144418BF641C4FF081
:1003700000084FF00009904271EB030C39D30029BB
:1003800019BFB1FA81F701FA07F6B0FA80F700FA5F
:1003900007F6C7F120071EBF20FA07FC46EA0C0645
:1003A0002037B6FBF4FCA7EB0507103F07F01F0B47
:1003B000CBF120062CFA06F60CFA0BFB44BFB34631
:1003C0000026202FA4BF5E464FF0000B5BEA060C10
:1003D00008BF4FF0010B19EB0B0948EB0608ABFB0C
:1003E000027C06FB02CC0BFB03CCC01B71EB0C01A7
:1003F000C1E70B46024641464846BDE8F08B13B5BF
:10040000084318BF4FF0FF300146AFF30080BDE84E
:100410001C4070471CB50C46064B7B446946009057
:10042000204600F0F6FA04460020694600F004FB7E
:1004300020461CBD1B0600002DE9F04106460024A5
:1004400010687529314616A510D000F035FA00283D
:1004500002DA404213A507E031688A0701D512A5E8
:1004600002E0490704D511A5012401E000F02DFAAE
:1004700000210A2206F1240709E0B0FBF2FCB0FBE0
:10048000F2F302FB1C00303078541846491C002857
:10049000F3D123462A463046BDE8F04100F047BA82
:1004A000000000002D0000002B00000020000000D4
:1004B0002DE9F05F894604464FF0000ADFF874B179
:1004C000FB44C0F820A02046E1688847002874D08B
:1004D000252806D0D4E901219047206A401C2062DB
:1004E000F1E700265F462046E16888472028054658
:1004F00007DB312D05D2781910F8200C08B106431E
:10050000F1E7B00701D526F00406C4F81CA00027C7
:10051000C4F818A02A2D09D0284610F05DFB38B386
:1005200004EB8708303DC8F8185019E059F8041B4F
:10053000204604EB87029161E1688847012F054658
:1005400018D1E069002820DA26F020061DE0D8F84E
:10055000180000EB800005EB40003038C8F81800A8
:100560002046E1688847054610F036FB0028EED1AA
:10057000012F0AD02E2D08D12046E16888477F1C24
:100580000546022F46F02006C4DBA069002803DAE6
:10059000404246F00106A061F00701D026F01006A7
:1005A0006C2D0BD0682D09D04C2D39D06A2D35D04B
:1005B000742D35D07A2D33D016E038E0E1682F461F
:1005C00020468847B842054609D16C2F26D04FF403
:1005D0008060E168064320468847054604E06C2FAA
:1005E0001AD04FF4807006430DB3A5F141001928CD
:1005F00002D8203546F400664A4629462046266041
:100600004E46FFF7FBFD80B101280BD0F61D26F00A
:10061000070000F1080956E74020E4E78020D8E70A
:100620000020D6E706F104094DE7284652E7206A84
:10063000BDE8F09F021301000B460146184600F08A
:100640002ABB032A40F2308010F0030C00F0158022
:1006500011F8013BBCF1020F624498BF11F801CBC5
:1006600000F8013B38BF11F8013BA2F1040298BF2A
:1006700000F801CB38BF00F8013B11F0030300F094
:100680002580083AC0F0088051F8043B083A51F838
:1006900004CBA0E80810F5E7121D5CBF51F8043B3D
:1006A00040F8043BAFF30080D20724BF11F8013BB0
:1006B00011F801CB48BF11F8012B24BF00F8013B12
:1006C00000F801CB48BF00F8012B704710B5203A65
:1006D000C0F00B80B1E81850A0E81850B1E81850ED
:1006E000A0E81850203ABFF4F5AF5FEA027C24BFBF
:1006F000B1E81850A0E8185044BF18C918C0BDE8A8
:1007000010405FEA827C24BF51F8043B40F8043B70
:1007100008BF7047D20728BF31F8023B48BF11F825
:10072000012B28BF20F8023B48BF00F8012B70477F
:100730004FF0000200B5134694469646203922BF7A
:10074000A0E80C50A0E80C50B1F12001BFF4F7AFC5
:10075000090728BFA0E80C5048BF0CC05DF804EBA7
:10076000890028BF40F8042B08BF704748BF20F815
:10077000022B11F0804F18BF00F8012B7047704713
:100780007047704770B5064C7C44064D7D4404E0CC
:100790002046016808448047241DAC42F8D170BD52
:1007A000202101002021010070B5064600F090FADA
:1007B000056806F10B0020F00704B4429CBF00203E
:1007C00070BD2B466A68BAB11068A04210D304F11C
:1007D000080188423CBF5068586007D3516810191F
:1007E00041601168091B016058601460101D70BDE4
:1007F00013465268002AE7D12146284600F078FACD
:100800000028DED170BD70B50446051F00F060FA07
:100810000068002C14BF446870BD002C18BFAC42A7
:100820003CBF20466468F8D301680A18AA4218BF82
:10083000456003D12A6805461144016028684119C2
:10084000A1421CBF6C6070BD61686960216808448A
:10085000286070BD10B500F043FA006810BD10B5F7
:10086000044600F03DFA046010BD70B50446856989
:100870000068C10601D5302600E02026C00707D059
:1008800070BDD4E9012130469047206A401C2062A7
:100890006D1EF6D570BD70B5044685690078C00739
:1008A00007D170BDD4E9012120209047206A401C67
:1008B00020626D1EF6D570BD09684A0501D540B2AB
:1008C0007047C905FCD500B2704709684A0501D5D3
:1008D000C0B27047C905FCD580B2704770B50C46F0
:1008E0000546012A05D02878800600D5EA6900234C
:1008F00002E0012305E05B1C934202D2E05C002889
:10090000F9D1A869E618C01AA861286A18442862B3
:100910002846FFF7AAFF04E0D5E9012114F8010BEE
:100920009047B442F8D32846FFF7B5FF70BD2DE9D4
:10093000F0470D4699469246044600F124080168A6
:10094000880604D5E06921F01001216000E0012053
:10095000A84201DD471B00E00027A1697A1902EBDC
:100960000900081AA0612078C00602D42046FFF7CB
:100970007CFF002608E0D4E901211AF80600904720
:10098000206A401C761C20624E45F4DB2078C006AD
:100990000AD52046FFF769FF06E0D4E9012130209F
:1009A0009047206A401C2062381EA7F10107F4DC42
:1009B00007E0D4E9012118F805009047206A401C9F
:1009C0002062281EA5F10105F3DC2046FFF763FF36
:1009D0002078000602D50220BDE8F0870120FBE761
:1009E00011680268006A530501D508700AE0D30552
:1009F00001D5088006E0130603D5C217C1E900023D
:100A000000E008600120704701694A1C0261087813
:100A1000704700B58FB0CDE901310021059105493E
:100A20007944CDE9031011466846FFF741FD0FB048
:100A300000BD0000E5FFFFFF0A6802F8010B0A6035
:100A4000704700002DE9FF5F15468A460446DFF82F
:100A5000AC80F8440027D8E900103E46CDE90010EC
:100A600010E03AF816106A4602A800F089FD411C11
:100A700007D02178890603D5E269391891420DD84B
:100A80000744761C2078800602D5E069B84205DD6F
:100A9000AE42E6DB3AF816000028E2D1A069C01B9E
:100AA000A0612046FFF7E1FED8E90010CDE9001073
:100AB000002017E03AF818106A4602A800F060FD1E
:100AC000B0F1FF3F81460BD000250DF1080B05E08A
:100AD000D4E901211BF8050090476D1C4D45F7D363
:100AE00008F10100B0428046E4DB206A384420620D
:100AF0002046FFF7D0FEBDE8FF9F0000820D0100F9
:100B00002DE9F0418046D21D22F007020025D2E9EE
:100B10000002F52915A614D0011E72F1000106DAB3
:100B20000023D0EB030063EB020211A608E0D8F823
:100B300000108B0701D50FA602E0490701D50EA6CC
:100B400001251146002408F1240704E000F01AF9F9
:100B500030323A55641C50EA0102F7D12B46324636
:100B600021464046BDE8F041FFF7E1BE000000002D
:100B70002D0000002B0000002000000030B40021F8
:100B800000F1240408E002F00705D208303542EAFB
:100B90004372DB086554491C52EA0305F3D104682B
:100BA000002310A2250708D504F020040C4304D02C
:100BB000C46901230CA2641EC46130BCFFF7B7BE38
:100BC00010B5044621461068FFF77FFE0246204616
:100BD000BDE810400023D1E7D21D22F00701D1E982
:100BE0000023CBE70000000030000000F0B40D4609
:100BF0000188090502D5214C7C4402E01F4C7C444D
:100C00000E34002100F1240608E002F00F0712095B
:100C1000E75D42EA03721B097754491C52EA030755
:100C2000F3D102780023120704D5702D06D009B144
:100C3000022311342246F0BCFFF779BE01231034A1
:100C4000F8E770B504460D4621461068FFF73DFEF3
:100C5000024629462046BDE870400023C6E7D21D63
:100C600022F00703D3E90023C0E70368126843F0CA
:100C7000200303600823C3610023B7E7E40B0100EE
:100C800010B5002000F0C1FCFFF718FBBDE81040D4
:100C9000012000F017B82DE9F041074615460E4631
:100CA0001020FFF781FD04000AD06760C4E90265E7
:100CB00000F012F80168216004600020BDE8F081B6
:100CC0000120FBE701491820ABBEFEE72600020029
:100CD0000048704720000020004870475000002066
:100CE00000487047180000207047704770477047F1
:100CF00038B504460A4600206946AFF30080002854
:100D000008BF38BD02460099204600F0BBFC012018
:100D100038BD012000F0A8BDF8B5AFF3008005464E
:100D200000200C46102000BF0646A819A0420DD98D
:100D3000324669460020AFF30080070008BF00F08C
:100D400093FD0098A04218BF0546C419FFF7C0FFE5
:100D500005600746F01D20F007004619284600F000
:100D60000AF8B44208BFF8BDA21B31463868BDE896
:100D7000F84000F087BC00210160C0E90110704715
:100D80001020704730B5B0F10A0271F100034FEA4C
:100D9000900E4EEA817EB0EB0E0061EB91014FEABE
:100DA000101E4EEA017E10EB0E0041EB11114FEACE
:100DB000102E4EEA016E10EB0E0041EB11214FEAAE
:100DC000104E4EEA014E10EB0E0041EB114140185F
:100DD00041F100014FEAD00040EA41704FEAD101F1
:100DE0004FEA810444EA907410EB800544EB01045F
:100DF0006D1944EB0404521BA3414FF0000348BF9C
:100E00000A3200D530BD401C41F1000130BD2DE952
:100E1000FF4F0C461E464FF0FF378BB0D2E9000162
:100E2000DDF860800A908A46C1F30A5505B93D464F
:100E3000002108464FF00000BAF1000F00F4400016
:100E400005DA00EB80004FF4400101EA50004FEA60
:100E50009059B9F1010F00DDB9460A9850EA4A00ED
:100E60000ED044F61050A5F2FF3545432F14B8F1CB
:100E7000000F1ED07542291E1EDDC9F100021CE0C4
:100E8000B8F1010F4FF0000001D0302103E0F24330
:100E900005E02154401CB042FBDB3046002200211B
:100EA00021540B99C1F80880C1E900200FB0BDE8BA
:100EB000F08FBD1B6D1CDEE74A4600DA694206A8CA
:100EC00000F03AFC06AB93E8070003AB83E80700A9
:100ED00050460A990FF06CF88DE80700A0F5005015
:100EE0001F3800900398002D0ADD42F21F014A4688
:100EF0000844002303A9039068460FF0D5FA09E0DF
:100F0000A0F500504A461F38002303A90390684605
:100F10000FF0DFFA8DE807000004000C03D04FF05B
:100F2000FF30410800E01046B8F1000F03D0002266
:100F3000009215461EE0751E05D4FFF723FF3032E0
:100F400062556D1EF9D5B3460122084302D0002236
:100F50007F1C04E02078302801D100227F1E002A67
:100F6000099784D01DE0112D07DAFFF70BFF30320F
:100F700062556D1C50EA0102F5D1084302D0009879
:100F8000C8B10EE00021681E05E0235C625C63547A
:100F90002254401E491C8142F7DBAB46A81B401E71
:100FA0000990002004F80B000B98099AC0F80880FB
:100FB000C0E9002B7AE711264FF0000857E72DE92A
:100FC000F04F88460446D21D22F0070191B0D1E9C6
:100FD0000001CDE90A010FF0B3FB02460B98C00FE8
:100FE00001D02D2007E02068810701D52B2002E0E9
:100FF000202101EAC000032A099001D0072A05DB5D
:1010000003464146204600F057FB0BE1207880065E
:1010100001D5E06900E00620B8F1650F814606D0F1
:10102000B8F1660F18D0B8F1670F70D131E0002029
:10103000B9F1110F009001DB112301E009F1010367
:101040000AAA01A90CA8FFF7E2FEDDE90C70002650
:1010500009F10105834647E001204B4600904FF01F
:1010600000470AAA01A90CA8FFF7D1FEDDE90DB0DF
:101070000C995D46002610B909F101000D18B9EB75
:10108000050003D4C0F1FF3609F10105A5EB090005
:101090002BE0B9F1010F01DA4FF001090020B9F19D
:1010A000110F0090484601DD112300E003460AAA13
:1010B00001A90CA8FFF7ABFEDDE90C704D46002638
:1010C0008346207800070AD4AB4500DA5D4601A8C4
:1010D000012D04DD411911F8011C302907D04F45BD
:1010E00002DA17F1040F04DA012082460FE06D1EC8
:1010F000EEE7002F02DCED1B3E4403E0781CA84223
:1011000000DD7D1CB81B00F1010A4FF0004720787C
:10111000000703D4AA4501DB4FF0FF3A0021B7F1E5
:10112000004F0DF143088DF8431024D002202B23EB
:10113000002F01DA7F422D230A21021EA0F10100B7
:1011400000DC5FB197FBF1FC97FBF1F201FB1C7C2B
:1011500017460CF1300C08F801CDEEE7A8F10100BC
:1011600003702188090501D5452100E06521A0F122
:10117000010800F8011C09980FA9A1EB0807FF1D41
:1011800000B10120411901EBEA70A1693844081A45
:10119000401EA0612078C00602D42046FFF765FB00
:1011A000099828B1D4E901219047206A401C2062A7
:1011B0002078C00622D52046FFF757FB1EE0002E00
:1011C00004DBB34502DD01A8805D00E03020D4E9F6
:1011D00001219047206A401C2062761CAAF1010080
:1011E0005FEA000A0AD100F049FAC0680168405C71
:1011F000D4E901219047206A401C2062281EA5F1F5
:101200000105DCDC07E0D4E9012118F8010B904767
:10121000206A401C2062381EA7F10107F3DC20463B
:10122000FFF739FB032011B041E600002DE9F04F34
:1012300004460D46D21D22F0070089B0D0E9009780
:10124000484639460FF07CFA0246F80F01D02D23AC
:1012500007E02068810701D52B2302E0202101EA65
:10126000C0038DF820300BB1012000E00020032ADC
:10127000824601D0072A04DB2946204600F01CFAEA
:101280003FE12078800601D40D2500E0E569C7F331
:101290000A560D2D49DA00214FEA175B08464FF038
:1012A0000000002F00F4400007DA00EB80004FF44C
:1012B000400100EBD07001EA60008115012901DDD9
:1012C0004FF0FF3100224FEA850CBCF1180F06D316
:1012D0001346ACF118004FF08052C24003E04FF4C7
:1012E000801323FA0CF30CF10C0CBCF1200F04D387
:1012F000ACF1200C09FA0CF001E007FA0CF000291F
:101300004FF0004801DD18B90FE00ED140450CD375
:1013100019EB02095F4121B9404502D19F4329EAF7
:101320000209BBEB175F00D0761C2088000502D5B0
:101330007B48784402E07A487844193808AA302378
:1013400002F80A30037C0AF10101002E0AF1020AB8
:1013500053546A4602DC4FF0300101E04FF0310196
:101360004FF001088DF8001002D0A6F2FF3603E01E
:1013700059EA470100D06B4E002D02DC21780907A5
:1013800004D54FF002082E218DF80110C44600212B
:101390000BE0C7F303433F01C35C491C6D1E02F819
:1013A0000830052908F1010801DA002DF1DC0021DF
:1013B0000CE000EB1973491C1B786D1E082902F81C
:1013C00008304FEA091908F1010801DA002DF0DCB4
:1013D00021688B0602D516E0A8F10108E04505DD7D
:1013E00002EB080313F8013C302BF5D0B8F1000FE5
:1013F00009DD02EB080313F8013C2E2B03D109078A
:1014000001D4A8F10108002D05DD3E2102F80810E5
:101410006D1E08F10108407C002E02F8080008F15A
:10142000010804DA2D20764202F8080002E02B20A1
:1014300002F808000A214FF47A70864208F1010888
:101440000BDB96FBF0F3303302F8083096FBF0F339
:1014500008F1010800FB136601E0642E0CDB642038
:1014600096FBF0F3303302F8083096FBF0F308F106
:10147000010800FB136601E00A2E06DB96FBF1F083
:10148000303002F8080008F1010896FBF1F001FB8A
:101490001060303002F80800A16908F1010808EB7B
:1014A000050202EB0A00081AA0612078C00602D4E7
:1014B0002046FFF7DAF9216A08AE01EB0A00206244
:1014C00004E0D4E9012116F8010B9047BAF1010AB2
:1014D000F7D22078C00602D52046FFF7C6F96E463F
:1014E00009E016F8010B3E280FD0D4E901219047FE
:1014F000206A401C2062B8F10108F2D22046FFF7B2
:10150000CAF909B00320BDE8F08F206A28442062A0
:1015100003E0D4E90121302090476D1EEBD3F8E7BA
:10152000E504010002FCFFFF10B5436913B1AFF3FE
:10153000008001E0FFF7D2F9012010BD127800F120
:1015400024010A7000224A700122EDE711684FF071
:10155000FF32E9E710B5436913B1AFF3008001E052
:10156000FFF770FA012010BD128800F12401828477
:101570000022C2840122EDE711684FF0FF32E9E753
:101580002DE9F04116460C46054600F06FF8036859
:1015900093F80101012807D0FF2C12D8185D80B103
:1015A00001202C70BDE8F081D3F8070132462146B6
:1015B00003F20713C7182846BC46BDE8F0410023D4
:1015C00060474FF0FF30EDE72DE9F0410646FFF7A9
:1015D00083FB8046454613E016B1E068B0420ED169
:1015E00020682860D4E90101D8F8007088472046B7
:1015F000FFF709F9D8F80000B842EBD100E0254622
:101600002C68002CE8D1BDE8F08110B500F014F989
:10161000BDE8104000F00BB90048704718000020EA
:1016200070477546FFF7F8FFAE460500694653461A
:1016300020F00700854618B020B5FEF761FEBDE832
:1016400020404FF000064FF000074FF000084FF029
:10165000000BAC46ACE8C009ACE8C009ACE8C00976
:10166000ACE8C00921F007018D46704710B500F0C5
:1016700005F8001D10BD00BFD9F5000000487047F7
:1016800038000020034640688C46002818BF884276
:101690003CBF03464068F8D318681844884207D016
:1016A0000CF1030020F00700001D411A521A0146F8
:1016B000081D0A60FFF7A7B82DE9F0411F46044650
:1016C00003260168072A01F4006004DB08B116A5AF
:1016D00005E016A503E008B115A500E015A521F069
:1016E00010002060A069C01EA0610FB1401EA06163
:1016F0002046FFF7BAF84FB1D4E9012138469047A8
:10170000206A401C2062C01C206206E0206AFAE7C2
:10171000D4E9012115F8010B9047761EF8D2204636
:10172000FFF7B9F8BDE8F0814E414E006E616E00E2
:10173000494E4600696E66002DE9F047814616461F
:101740008AB0354878440DC88DE80D003248784499
:10175000801C03AC0DC884E80D0041F69B300844A2
:10176000372190FBF1F290FBF1F5A5F1800501FB2B
:1017700012041B3C02D56442012000E00020DFF887
:1017800098A080460027FA44AAF1BE0A0EE0E007BE
:101790000AD03246684607EB470101230AEB810174
:1017A0000EF097FE8DE8070064107F1C002CEED130
:1017B000194F7F44AE3F19E0E80715D007EB04103E
:1017C0000DF1180A90E80E008AE80E00C068F04299
:1017D00001D1981908903246012306A903A80EF0FA
:1017E00078FE03AB83E807006D10641C002DE3D185
:1017F0004FF0010332466946B8F1000F03A802D04A
:101800000EF052FE01E00EF064FEC9E90001C9F8D5
:1018100008200AB0BDE8F0876401010010B5044655
:10182000AFF300802046BDE81040FEF755BD00280C
:1018300001D0FFF747BA704710B5002102A000F0B1
:101840001AF8012010BD0000534947414252543A52
:101850002041626E6F726D616C207465726D696E8D
:101860006174696F6E00000010B500F01DF8BDE8EE
:101870001040FFF7DCBF70B505460C460A2000E0BB
:101880006D1C00F077F835B128780028F8D102E017
:10189000641C00F06FF814B120780028F8D1BDE87E
:1018A00070400A2000F066B810B5012805D000216C
:1018B00003A0FFF7E0FF012010BD09A1F8E7000039
:1018C00053494752544D454D3A204F7574206F6629
:1018D0002068656170206D656D6F72790000000091
:1018E0003A2048656170206D656D6F727920636F75
:1018F000727275707465640030B44FF0013C50F83A
:10190000042B51F8043BCCFA52F4D51A20D1FCB97F
:1019100050F8042B51F8043BCCFA52F4D51A17D1E5
:10192000B4B950F8042B51F8043BCCFA52F4D51A50
:101930000ED16CB950F8042B51F8043BCCFA52F498
:10194000D51A05D1002CDAD030BC4FF0000070471A
:1019500029BAB1FA81F111F01801D1F120008440C7
:10196000F2D1CA40CB4012F0FF0213F0FF0330BCAB
:10197000D01A704708B569468DF800000320ABBE49
:1019800008BD000010B542F20432C4F20102116831
:1019900021F440311160D2F800C090E80A4043EAD7
:1019A0000C03C46813604A6822F480724A600269BA
:1019B0004B6843EA02224A604A6822F040724A6059
:1019C0004A6842EA0E024A608A6822F400628A602B
:1019D0008A6822438A60826A8B68012423F07063DC
:1019E0008B608B68C0F60074A24202D123F0405293
:1019F00008E01A438A608A6822F040528A60C26A0C
:101A00008B681A438A608A6822F002028A608A68B8
:101A1000037E90F8204042EA43028A604A6884B11B
:101A200042F400624A604A684EF2000322F46042C7
:101A30004A60426ACFF6FF734C6803EB423222439E
:101A400001E022F400624A60CA6A40F2000C22F40B
:101A50007002CA62C3694269CFF6F07CCC6A0CEBB3
:101A600003532343CB628B6823F400738B6090F89D
:101A700030008B6843EA40208860886820F48060EA
:101A80008860886840EA8220886010BDFEE7000018
:101A900080B540F23C20C2F2000000F0A7FC80BDFF
:101AA00080B540F23C20C2F2000000F09FFC80BDF7
:101AB00080B540F26420C2F2000000F097FC80BDC7
:101AC00080B540F24C30C2F2000000F0BBFF80BD98
:101AD00080B540F2AC30C2F2000000F0B3FF80BD30
:101AE00080B540F28C20C2F2000000F0ABFF80BD58
:101AF00080B540F20C40C2F2000000F0A3FF80BDB0
:101B000080B540F27470C2F20000202180F83D10D0
:101B100040F2EC20C2F20000012146F20C4C80F8A9
:101B20003510C4F2020C03680CF14C0246F2080EA8
:101B30009342C4F2020E06D94FF00061CCF80010B7
:101B400093420AD920E00EF1B0018B4210D94FF038
:101B50000061CEF80014934216D80EF1B0018B420A
:101B60001DD94FF08061CEF80014934212D822E0C4
:101B70000EF150018B424FF0006194BFCEF800107F
:101B8000CEF804109342E8D94FF08061CCF80010F1
:101B9000934210D94FF48001CCF800101EE00EF1F2
:101BA00050018B424FF0806194BFCEF80010CEF808
:101BB00004109342EED80EF1B0018B4204D94FF4D9
:101BC0008001CEF8001409E00EF150018B424FF471
:101BD000800194BFCEF80010CEF80410002180F8E8
:101BE000341000F02FFF80BDD0F800C06FF00F025E
:101BF0004AF6AB2352FA8CF2CAF6AA230146A2FB9C
:101C00000330000905A31B5C40F2FF302CEA000002
:101C10005F2A88BF0430C1E916037047000610161A
:101C2000000610168269816AB2F5005F06D06AB9B3
:101C3000022912D0012914D0D1B90EE0032917D8F6
:101C4000DFE801F0020B020F0120704703293CBFBF
:101C5000012070471CBF00207047C06AC0F30060BD
:101C60007047C06AA0F1C070B0FA80F040097047B8
:101C70000020704780B5D0F800C0D0F808E0DCF84C
:101C80000000BEF1400F20F48020CCF80000084690
:101C9000CCF8043004BF10460A46CCF80800CCF853
:101CA0000C2080BD7047000080B5012001F02CF9A8
:101CB00080BD000080B5082001F026F980BD00003D
:101CC00080B5102001F020F980BD000080B52020F3
:101CD00001F01AF980BD0000EFF3108072B600BF6A
:101CE000FEE7000080B543F61043C4F20203D3F8C8
:101CF00000C04FF4407E2CF440721A601A68032929
:101D000038BF4FEA012E42EA0E011960196821F02E
:101D1000F8011960196841EAC00040F0020018603B
:101D2000186840F48030186080BD000043F6004021
:101D3000C4F20200016889050FD5016821F4007121
:101D40000160016841F400610160016821F40061F3
:101D50000160016841F4007101600168490558BFE4
:101D60007047016821F480610160016841F480518D
:101D70000160016821F480510160016841F48061D3
:101D80000160704743F61041C4F202010A6822F470
:101D900040720A600A6842F004020A600A6842EA75
:101DA000002040F4803008607047000043F6104285
:101DB000C4F20202136823F44073136013681360C3
:101DC000136843F0010313600170704780B543F658
:101DD000104EC4F2020EDEF800C02CF44071CEF8B2
:101DE0000010DEF8001041F44071CEF80010DEF86B
:101DF000001041F00101CEF800100260BFF36F8FB8
:101E0000436080BD43F61042C4F20202136823F41B
:101E100040731360136843F480731360136843F0D6
:101E2000010313600180704743F61042C4F20202BE
:101E3000136823F440731360136843F40073136052
:101E4000136843F0010313600160704743F60C40D0
:101E5000C4F202000168C90640F64001C2F2000166
:101E600005D5CA6942F01002CA61102202600268F8
:101E7000920605D5CA6942F00802CA6120220260B2
:101E80000268520605D5CA6942F00402CA614022BE
:101E900002600268120605D5CA6942F00202CA61F0
:101EA000802202600268920758BF7047CA6942F0F8
:101EB0002002CA610221016070470000F0B581B0C4
:101EC000044640F6400043F60C46C2F200000021F2
:101ED000C4F20206C16101F0F9F83168C9030DD4FA
:101EE0003068C0071CBF01203060306810F0F20F6E
:101EF0000BD0FFF7ABFF012001B0F0BD0546671C1A
:101F000006D054B9032001B0F0BD002001B0F0BDEF
:101F10003068C003E4D5002FFAD001F0D7F8401B99
:101F2000A042F5D9EEE7000070B581B00022009222
:101F300090F83C20012A01D1022156E00E680122CE
:101F40001FFA86FC80F83C204FEA4C0212FA86F316
:101F500002680A2E32BF10321E3B0C324FF0070EC1
:101F600015680EFA03F4A54315608D68146805FA28
:101F700003F3234313604968062906D8026801EB7E
:101F80008101053902F134030AE00C2901EB8101DA
:101F9000026887BF413902F12C03233902F1300373
:101FA0001F221C688A4024EA02021A601A680CFA8E
:101FB00001F1114342F2043E1960C4F2010E0168BE
:101FC000122EAEF5417208BF914205D1DEF8003005
:101FD00043F48003CEF8003026F00103102B08BF35
:101FE000914205D0002180F83C10084601B070BD38
:101FF000DEF80010102E41F40001CEF80010F1D1EF
:1020000040F20001C2F2000109684DF68362C4F299
:102010001B32A1FB0212910C01EB8101490000BFB0
:10202000009100990029DDD000990139F8E70000FE
:10203000B0B510B30446006C30B9204600F020F86B
:102040000020606484F83C00206C0125C0060FD499
:10205000206C41F202118843023020642046FFF7D1
:1020600091FC00206064206C65F301000025206471
:10207000002084F83C002846B0BD0120B0BD00001F
:1020800080B586B0006842F20022C4F2010200214D
:102090009042CDE90411CDE90211019116D042F22E
:1020A0000001C4F20101884238D10020009043F6BB
:1020B0004400C4F20200016841F4807101600068CC
:1020C00000F480700090009806B080BD43F6440094
:1020D0000091C4F20200026842F480620260026869
:1020E00002F480620092009A009150F8142C42F0A1
:1020F000200240F8142C50F8140C00F0200000903E
:1021000000984FF4806001900320CDE9020141F274
:102110000040C4F2020001A900F004FF06B080BD37
:1021200090F82020013A012A04D8006800F1140236
:10213000002004E000F1240201204FF48021136804
:10214000194311607047000010B590F820E0D0F8F6
:1021500000C0AEF1010EBEF1010FDCF808E00DD8B1
:102160001EF0E05F10D0CEF3016EBEF1030F11D16F
:1021700000F1240101204FF4000233E000F12401BA
:1021800001204FF480222DE000F1240101204FF4C2
:10219000001227E0012000FA0EF01860886818B1DC
:1021A0004B6840EAC30001E008684005D1E9033408
:1021B00003430CEB0E10C0F88031C0F88441097D58
:1021C000012905D100F5C2710B6843F480730B60DF
:1021D0005168C0F88C11126800F5C071C0F88821F0
:1021E000002001220B681A430A6010BDB0B590F8B8
:1021F0002020013A012A2FD846F20060C4F20000E4
:10220000026842F001020260026822F47C5202601D
:10221000D1F814E0CC694A6A0368012C43EA02222F
:1022200002600EF01F024FF0010303FA02F2C369CD
:102230006FEA020C23EA0203C36113D02CBBC3680C
:1022400003EA0C03C360CB688C8844EA034300EBC9
:10225000CE0423640B4611E0416A41F480214162BF
:102260000120B0BDC3681343C3600B688C8844EA87
:10227000034300EBCE04236401F10C038C681B883C
:1022800043EA044300EBCE04636443688D6943EA88
:102290000204D1F810E0096A002D08BF03EA0C041B
:1022A00044604369BEF1000F43EA020408BF03EA39
:1022B0000C040129446102D1C1691143C161016863
:1022C00021F0010101600020B0BD00007047000056
:1022D00010B590F82040013C012C0CD8D0F800C07B
:1022E00079B1DCF81040A4070FD100F124010120DE
:1022F0004FF4001270E000F1240101204FF480221D
:102300006AE0DCF80C40A4076AD0046804EB011C06
:10231000DCF8B0410CF5D87E14F004049460DCF8CD
:10232000B04119BFE4085460640D1460DEF8004049
:10233000002904F00204D460DCF8B44104F00F0476
:102340001461DCF8B441C4F307249461DCF8B441AF
:102350004FEA14445461DCF8B8211A70026802EBA9
:102360000112D2F8B8214FEA12225A70026802EB29
:102370000112D2F8B8214FEA12429A70026802EBB9
:102380000112D2F8B8214FEA1262DA70026802EB49
:102390000112D2F8BC211A71026802EB0112D2F8C4
:1023A000BC214FEA12225A71026802EB0112D2F8E4
:1023B000BC214FEA12429A71026802EB0112D2F874
:1023C000BC214FEA1262DA71006814BF00F11001FB
:1023D00000F10C01002020220B681A430A6010BD96
:1023E00000F1240101204FF40012F5E72DE9F04F30
:1023F00081B0044600684669D0F804908768D0F838
:102400000CB0D0F810A0D0F81880F10703D1002547
:1024100030071CD423E0F90710D00121BA078160EE
:1024200009D4780700F1AA80380700F1B08020466F
:1024300000F0A8FA02E0204600F0A6FA0025F80510
:1024400000F18480F80300F1AA80300707D51BF063
:10245000100004D0206845F400751021C160700799
:1024600008D51BF0080005D020680821C16020466F
:1024700000F0F4F9B00706D52068C068800702D0E4
:10248000204600F0EDF9700607D51AF0100004D0D0
:10249000206845F4806510210161B00608D51AF066
:1024A000080005D0206808210161204600F036FAB6
:1024B000F00606D520680069800702D0204600F0AB
:1024C0002FFAB00308D519F0100005D020681021AC
:1024D0004160204600F026FAF00308D519F0080004
:1024E00005D0206808214160204600F057FA3004EA
:1024F00040F18F805FEA497040F1888006F4807077
:1025000008EA102028435FEA8871014648BF41F07D
:102510000201B20558BF01465FEA48700D4648BF48
:1025200045F00405700558BF0D4630056ED518F00E
:1025300070006BD010380009052862D8DFE800F081
:10254000035356595C5F45F008055AE020684FF484
:102550008071BA0581600AD4780512D4380519D47F
:10256000204600F013FAF8037FF56FAF17E020461E
:1025700000F00EFAF8037FF568AF10E04FF4006545
:102580005DE705F50055F8037FF55FAF07E04FF411
:10259000805554E705F58045F8037FF556AF206870
:1025A0004FF48031BA0381600AD478030FD4380322
:1025B00013D4204600F0EEF930073FF548AF4EE760
:1025C000204600F0E9F930073FF541AF47E705F550
:1025D000004530073FF53BAF41E705F58035300753
:1025E0003FF535AF3BE745F010050AE045F0200523
:1025F00007E045F0400504E045F0800501E045F4C2
:1026000080752068816921F0700181612068042152
:1026100041602DB1606A284360622046FFF756FE94
:1026200001B0BDE8F08F0000B0B5C8B1044690F825
:10263000200010B9204600F071F82068016841F0D0
:102640000101016000F042FD054600BF20684168BD
:10265000C90707D100F03AFD401B0B28F6D312E062
:102660000120B0BD016821F00201016000F02EFDE3
:10267000054600BF2068416889070DD500F026FD9A
:10268000401B0B28F6D3606A052140F400306062DD
:10269000012084F82010B0BD217E0268012922F0BB
:1026A000800208BF80320260617E0268012922F048
:1026B000400208BF40320260A17E0268012922F078
:1026C000200208BF20320260E17E0268012922F068
:1026D000100218BF10320260217F0268012922F027
:1026E000080208BF08320260617F0268012922F0F7
:1026F000040208BF04320260D4E901C2D4E9033500
:1027000061691A432A431143ACF101021143C161CB
:1027100000200121606284F82010B0BD10B586B0A1
:10272000006846F60002C4F2000200219042CDE9A2
:102730000411CDE90211019146D046F20041C4F2E4
:102740000001884240F0888040F27801C2F2000126
:102750000A6843F64000C4F20200531C0B6052B9F1
:1027600000210091016841F000710160016801F0F1
:102770000071009100990021009150F8102C42F056
:10278000080240F8102C50F8100C022200F008004B
:10279000009000980320019004900920059040F2D9
:1027A0000040C4F20200CDE9022100F5006001A959
:1027B00000F0B8FB14200021002200F059FE142084
:1027C00000F052FE15243FE043F64000C4F2020040
:1027D0000091016841F080610160016801F0806151
:1027E0000091009940F27801C2F200010A68531C7E
:1027F0000B6052B900210091016841F00071016045
:10280000016801F00071009100990021009150F8D9
:10281000102C42F0020240F8102C50F8100C00F07E
:10282000020000900098602001900220CDE9020192
:10283000032004900920059040F20040C4F20200F9
:1028400001A900F06FFB402420460021002200F087
:102850000FFE204600F008FE06B010BD70470000D5
:102860002DE9F0418AB040F66004C2F200048046CF
:1028700020460BF053FC074620460BF053FC01ADFD
:10288000044603AA404600212B46FFF721FD40F2F3
:102890003C20C2F20000804508D040F26420C2F221
:1028A000000080451ED00AB0BDE8F08138780028CD
:1028B000F3D0002004E000BF397801308842ECD228
:1028C00007EB800151F8042F039B12889342F3D148
:1028D000002200BF0B68AE5C13440132082ADE7090
:1028E000F8D1E9E720780028DDD0002004E000BF1F
:1028F000217801308842D6D204EB800151F8042FB0
:10290000039B12889342F3D1002200BF0B68AF5C97
:1029100013440132082ADF70F8D1E9E7704700005C
:102920007047000070470000B0B5044690F82000E2
:1029300001281DD1022084F820002068016821F0C0
:102940000101016000F0C2FB054600BF206840683D
:10295000C00713D000F0BAFB401B0B28F6D3606A07
:1029600040F400306062052084F820000120B0BDF2
:10297000606A40F4002060620120B0BD0020606207
:10298000B0BD0000704700007047000070470000B5
:10299000704700007047000070470000704700005B
:1029A00070B5866D044600F091FB94F8351002294D
:1029B00025D105462068216C026822F016020260CB
:1029C000426922F08002426109B9A16C19B1016823
:1029D00021F008010160016821F00101016000BFE0
:1029E00020680068C0070ED000F070FB401B06286E
:1029F000F6D320206065032084F835000CE08020A9
:102A00006065012008E0E06D3F2101FA00F0B06050
:102A1000012084F835000020002184F8341070BDB6
:102A200090F83510022909D1052180F83510006889
:102A3000016821F00101016000207047802141659B
:102A400001207047F0B581B004460020009040F2AC
:102A50000000C2F200000268D4E9166048F2B51323
:102A600037680821C1F64E3381403942A2FB032565
:102A70000CD0226813685B0708D5136823F00403A1
:102A80001360B160616D41F0010161650121814018
:102A9000394208D022685269120604D5B160616DCE
:102AA00041F00201616504218140394208D0226869
:102AB0001268920704D5B160616D41F0040161654F
:102AC00010218140394215D020680268120711D5C3
:102AD000B16002680168520306D4C90506D40168D2
:102AE00021F00801016001E0080342D4216C09B122
:102AF00020468847E16D202000FA01F23A4244D096
:102B000020680368DB0640D5B26094F8353002686F
:102B1000052B1ED122F016020260426922F08002CB
:102B20004261226C0AB9A26C1AB1026822F0080252
:102B300002603F208840B060012084F83500216D9C
:102B40000020002984F8340040D02046884701B096
:102B5000F0BD0168520310D4C90512D4016821F0F8
:102B600010010160012084F83500002084F8340051
:102B700007E0A16C0029BBD1BCE7080301D4616C5C
:102B800000E0E16B09B120468847606DF0B1606DEF
:102B9000C00717D0052084F835002068A90A02680C
:102BA00022F00102026000BF009A01328A420092C4
:102BB00002D80268D207F7D1012084F8350000203E
:102BC00084F83400E16C09B12046884701B0F0BDBB
:102BD0002DE9F041044600F079FAC4B1054602201F
:102BE00084F835000020216884F83400086820F05B
:102BF0000100086026683068C0070BD000F066FA54
:102C0000401B0528F6D903212022032042E00120A1
:102C1000BDE8F081306848F23F01CFF21001251D78
:102C200000EA010C2ECDD4E9050E41EA0C01114356
:102C300019432943D4E90778084340EA0E01606A42
:102C40003943042841EA080103D1D4E90B23114395
:102C5000194331607169042821F0070141EA000538
:102C60000CD1D4E90A1045EA010538B12046FEF737
:102C7000D9FF18B10121402201200BE020467561E7
:102C8000FEF7B2FFE16D3F2202FA01F181600022FE
:102C900001210020626584F83510BDE8F081000054
:102CA000B0B5044690F83400012828D0012084F8FB
:102CB0003400A56D94F8350001281DD1022084F858
:102CC0003500002060652046FEF7D4FFE26D3F230B
:102CD000206803FA02F2216CAA60026842F0160230
:102CE000026019B1016841F008010160016841F01A
:102CF000010101600020B0BD002084F834000220F2
:102D0000B0BD0000B0B5044600F0E0F9054640F261
:102D10000C00C2F200000078611C18BF044400BF20
:102D200000F0D4F9401BA042FAD3B0BD2DE9F04326
:102D300081B040F64008C2F2000898F81820012A35
:102D400001D1022647E00546012088F818004CF220
:102D500050300C46FFF7B2F80646C8BB4FF0FF30C4
:102D600020602868012810D1287CFFF70BF84CF26E
:102D70005030FFF7A3F843F61041C4F202010A688D
:102D8000064622F00400086020E0D5E902703844CD
:102D900087421BD243F61049C4F20209297C384607
:102DA000FEF7A0FF4CF25030FFF788F8D9F800107A
:102DB000064621F0FA00C9F8000036B9D5E902014B
:102DC000013708448742E9D300E02760FEF7AEFFF1
:102DD000002088F81800304601B0BDE8F0830000FC
:102DE00043F61041C4F20201086840F0004200209E
:102DF0000A6070472DE9F04140F64008C2F2000831
:102E0000144698F81820012A04BF0220BDE8F0817A
:102E10000746012088F818004CF250301E460D4637
:102E2000FFF74CF820BB022F07D0012F0AD077B94B
:102E3000E1B22846FEF7BAFF0EE028462146FEF72B
:102E4000F3FF09E0A1B22846FEF7DCFF04E02846C4
:102E500022463346FEF7BAFF4CF25030FFF72EF809
:102E600043F61041C4F202010A6822F001020A602E
:102E7000002188F81810BDE8F081000043F60440F6
:102E8000C4F20200C168B1F1FF3FC4BF0020704727
:102E900040F22311C4F26751016048F6AB11CCF641
:102EA000EF510160C068C00F70470000F0B5ADF68B
:102EB0006C1D044640F66000C2F200000BF04CF9B5
:102EC000102C1DD10446D8B140F28006C2F2000693
:102ED000306840F28407C2F2000740F6600101AD9D
:102EE0003860C2F2000128460BF010F928460CF0B9
:102EF0006BFD306021683A688B68811A20469847DC
:102F00000DF66C1DF0BD000080B543F61441C4F20F
:102F100001010A68024208BF80BD0860FFF7C6FFD2
:102F200080BD00002DE9F04F83B000F13E4202F178
:102F3000FF724FEAB22241F600470192C4F2020743
:102F400008224FF0010E00254FF0000A4FF0000854
:102F5000B84208BF072200920AE000BF08F101084A
:102F60000AF1040AB8F1100F05F1020500F0A4807F
:102F70000C680EFA08FB14EA0B09EFD04C6804F059
:102F8000030CACF1010EBEF1010F11D803228768CA
:102F900002FA05F6CA68B743AA403A43826042681B
:102FA000C4F3001722EA0B0207FA08F73A4342601B
:102FB000BCF1030F1CD0C26803238E6803FA05F727
:102FC000BA4306FA05F73A43BCF1020FC2600FD1CB
:102FD0006FF0030202EA580202440AF01C060F23B3
:102FE000176A03FA06F40B69A743B3403B43136225
:102FF000026803234F68AB409A4307F00303AB40DA
:103000001A4317F4403F4FF0010E0260A6D0002291
:1030100043F644030292C4F202031A6843F60044E2
:1030200042F480421A601A68C4F2010402F4804239
:103030000292029A28F003024FF6084B2244CFF680
:10304000FF7B52F80B300AF00C070F26BE4023EA34
:10305000060C019B009E072B38BF1E4606FA07F799
:1030600047EA0C0342F80B30A2684B6842EA0907B2
:1030700043F60C4CDE0258BF22EA0907A760C4F2EF
:10308000010CDCF800209E0242EA090758BF22EA40
:103090000907CCF8007062689E0342EA090758BF2E
:1030A00022EA090767602268DB0342EA090358BF86
:1030B00022EA0903236051E703B0BDE8F08F000066
:1030C000002A08BF090481617047000042F2B02065
:1030D000C2F2000000687047F0B581B0B0B304469A
:1030E00090F83D0028B9002084F83C00204600F00C
:1030F000BFF8242084F83D002068016821F0010118
:103100000160016841F400410160016821F400415F
:10311000016000F077FA48F28041C0F21E0140F6EB
:103120000012656888424FF00001C0F23D0248F28B
:10313000A16C4FF0000338BF01219042C0F2010C96
:1031400038BF0123654538BF0B4613B1012001B0DC
:10315000F0BD4DF68361C4F21B31A0FB0112216862
:103160004FEA924E4B684FF4967623F03F0343EAC2
:1031700092434B6044F6D3530F6A0EFB06F6C1F23E
:103180006203A6FB033627F03F03B709654538BF46
:10319000970C7A1C1A430A62CA6948F2A0674CF677
:1031A000FF73C0F20107BD4222EA030C0AD80138BE
:1031B0006A00B0FBF2F001306FF31F30042898BFB3
:1031C00004202BE0A368A0F1010E9BB119206843F5
:1031D000BEFBF0F00422013062F31F30000512D074
:1031E0009BB119206843BEFBF0F00422013062F36A
:1031F0001F3011E005EB4500BEFBF0F001306FF32E
:103200001F300005ECD1012008E005EB4500BEFBB6
:10321000F0F001306FF31F3040F4004040EA0C0042
:10322000C8610868D4E9072320F0C00010431843A0
:103230000860886848F2FF3204F10C0790438CCF95
:1032400018431043A6698860C86820F0FF0038431F
:103250003043C860086840F0010008600020202169
:10326000206484F83D10206384F83E0001B0F0BD76
:103270002DE9F04F87B0006845F60041C4F2000127
:1032800000268842CDE90566CDE90366029632D074
:1032900045F60001C4F20001884273D1002543F6CF
:1032A00030040195C4F202042068122140F020008D
:1032B0002060206800F02000019001980320039115
:1032C00001210290CDE90410042006900020C4F2F0
:1032D000020000F5A05002A9FFF724FE0195206925
:1032E00040F480002061206900F480000190019882
:1032F00007B0BDE8F08F43F630070196C4F202072D
:103300003868002440F0040038603868C4F20204D1
:1033100000F00400019001980196386802AD40F079
:103320000100386038684FF0120800F00100019089
:1033300001984FF4007002904FF001094FF0030A1A
:103340004FF0040B04F500602946CDF80C80CDF851
:103350001090CDF814A0CDF818B0FFF7E3FD4FF4AE
:10336000807002A981E8010F20462946FFF7DAFDA7
:103370000196386940F400003861386900F40000B3
:103380000190019807B0BDE8F08F000040F20C00FA
:1033900042F2B021C2F20000C2F2000100780A68D5
:1033A000104408607047000080B543F60040C4F246
:1033B0000200016841F400710160016841F480611C
:1033C0000160016841F480710160032000F060F841
:1033D000002000F005F800F02BF8002080BD000070
:1033E000B0B540F20C02C2F2000240F200011278C5
:1033F000C2F200014FF47A730968B3FBF2F204469B
:10340000B1FBF2F1084600F0C1FC0F2C4FF00105B2
:103410000CD858B94FF0FF3021460022002500F0AB
:1034200027F840F21000C2F2000004602846B0BD48
:1034300082B0002043F640010190C4F202014A68C4
:1034400042F480424A604A6802F480420192019A42
:103450000090086840F080500860086800F08050D4
:103460000090009802B0704780B50CF073FC80BDEE
:1034700070B514460D4606460CF07CFC29462246E3
:1034800002F0C2F9014630460CF07CFC70BD000031
:1034900080B50CF089FC80BD2DE9F041002800F0DA
:1034A0008B8043F60808C4F202080446D8F8F803F3
:1034B0000D4600F00700884207D288F8F853D8F884
:1034C000F80300F00700A84276D12068810717D5DD
:1034D000410705D5D8F8001041F4E051C8F80010B4
:1034E000010705D5D8F8001041F46041C8F8001074
:1034F000D8F80010A26821F0F0011143C8F80010BC
:10350000C0073FD1D8F8F80300F00700A84207D958
:1035100088F8F853D8F8F80300F00700A8424BD118
:103520002068410707D5D8F80010E26821F4E0517F
:103530001143C8F80010000708D5D8F80000216929
:1035400020F4604040EAC100C8F8000000F07EF8B6
:10355000D8F8001041F69812C1F30311C0F6010229
:10356000515C40F2000220FA01F140F21000C2F278
:1035700000000068C2F200021160FFF731FF002076
:10358000BDE8F0816068811E022907D258F8081C46
:1035900089015CBF0120BDE8F08110E0012807D15E
:1035A00058F8081C89035CBF0120BDE8F08106E0E3
:1035B00058F8081C890702D40120BDE8F081D8F82A
:1035C000001021F003010843C8F80000FFF77EFD5A
:1035D000064641F2883700BFD8F80000616800F065
:1035E0000C00B0EB810F8DD0FFF770FD801BB8424F
:1035F000F2D90320BDE8F08140F20000C2F20000E1
:103600000068704780B5FFF7F7FF43F60801C4F282
:103610000201096841F6A812C1F38221C0F6010235
:10362000515CC84080BD000080B5FFF7E5FF43F660
:103630000801C4F20201096841F6A812C1F342313F
:10364000C0F60102515CC84080BD000010B543F6D1
:103650000404C4F20204606800F00C0008280AD0D8
:10366000042819BF42F20040C0F2F40041F60030D5
:10367000C0F2B70010BD206821682368490241F6F6
:103680000031C0F2B70100F03F02C3F388105CBF05
:1036900042F20041C0F2F401A1FB00010023FCF75B
:1036A00041FE21680222C1F3014102EB4101B0FB5E
:1036B000F1F010BD2DE9F04182B0002800F0A280A9
:1036C0000446007843F60006C007C4F2020643D061
:1036D000B06800F00C00042805D1306880033BD5A9
:1036E0006068C8BB8EE0B06800F00C00082802D10A
:1036F00070684002F1D46568B5F5A02F0AD0B5F521
:10370000803F0BD0306820F480303060306820F487
:10371000802006E0306840F480203060306840F45B
:1037200080303060FFF7D2FC002D054611D000BF7D
:103730003068800310D4FFF7C9FC401B6428F7D918
:1037400022E100BFFFF7C2FC401B64284FF00300DA
:1037500055D830688003F5D4207880071AD5B06832
:1037600010F00C0F09D0B06800F00C00082840F0F1
:103770008A807068400200F186803068800702D538
:10378000E06801283ED13068216920F0F80040EA65
:10379000C10030602078000738D4207840074CD42E
:1037A000A5695DB3B06800F00C00082840F09E8069
:1037B000012D27D07068E16900F480028A4221D18E
:1037C000216A00F03F028A421CD147F6C071626A4A
:1037D0000140B1EB821F15D1A26A0023CFF6FF731F
:1037E00003EBC23200F440316FF30F02914209D172
:1037F000E16A00F07060B0EB016F03D1002002B00D
:10380000BDE8F081012002B0BDE8F08160690028C8
:1038100040F20000C4F2472057D00121C0F8801EBA
:10382000FFF754FC054600BF706F8007B5D4FFF763
:103830004DFC401B0228F7D9A6E0306C10F08058F0
:103840000AD100200190306C40F080503064306C20
:1038500000F080500190019847F20007C4F2000781
:103860003868C00524D4386840F480703860FFF7A9
:103870002DFC05463868C0051AD4FFF727FC401B0D
:103880000228F7D980E0E068002851D00020C4F277
:10389000472001210160FFF719FC054630688007C9
:1038A0003FF571AFFFF712FC401B0228F6D96BE021
:1038B000A568052D50D0012D52D0306F20F00100A9
:1038C0003067306F20F004004DE00021C0F8801E0A
:1038D000FFF7FCFB054600BF706F80077FF55DAF0B
:1038E000FFF7F4FB401B0228F6D94DE00027C4F295
:1038F000472700203866FFF7E9FB022D05460BD16C
:103900003068800158D5FFF7E1FB401B02284FF0DB
:103910000300F5D973E700BF306880017FF56EAF13
:10392000FFF7D4FB401B02284FF00300F4D966E7F1
:103930000020C4F2472000210160FFF7C7FB0546C5
:10394000306880077FF526AFFFF7C0FB401B0228D9
:103950004FF00300F4D952E7306F40F004003067B5
:10396000306F40F001003067FFF7B0FB002D0546D7
:1039700041F2883714D000BF306F800713D4FFF7AF
:10398000A5FB401BB842F7D9032002B0BDE8F08187
:10399000FFF79CFB401BB8424FF003003FF62FAFF0
:1039A000306F8007F4D4B8F1000F7FF4F9AE306CBB
:1039B00020F080503064F3E604F11C052FCD08435D
:1039C0000021CFF6FF7140EA821001EBC3316FF3A3
:1039D0000F0140EA05600843706001203866FFF778
:1039E00075FB0446306880013FF508AFFFF76EFBBA
:1039F000001B02284FF00300F4D900E770B538B17E
:103A00000446406A30B10020206104F1140007E050
:103A1000012070BD6068B0F5827F03D004F11C0006
:103A2000002101600026A66294F8510020B92046CA
:103A300084F8506000F03CF8022084F8510094E8CB
:103A40000F0001F48271056802F4044225F040057C
:103A50000560114403F400622369114403F002027B
:103A60006369114403F00102A369E569114403F499
:103A70000072114405F03802256A114405F08002F5
:103A8000A56A114305F4005211430160626A0421E2
:103A900001EA134102F0100211444160C16921F4AE
:103AA0000061C1610120666584F85100304670BD37
:103AB000F0B587B0006843F60002C4F200020021AE
:103AC0009042CDE90511CDE90311029141D043F2B5
:103AD0000001C4F20101884264D1002543F63000A0
:103AE0000195C4F20200416940F2004441F4805162
:103AF00041614169C4F2020401F4805101910199CC
:103B000001950168022641F0020101600168032766
:103B100001F00201019101990195016841F0010153
:103B20000160006802A900F00100019001981820CE
:103B30000290052006902046CDE903650597FFF722
:103B4000F1F98020CDE90206CDE90457A4F58060A3
:103B500023E043F630000191C4F20200026942F40E
:103B600080420261026902F480420192019A01914D
:103B7000026842F002020260006800F00200019058
:103B800001984FF4604002900220CDE90301032028
:103B9000059040F20040C4F202000521069102A9FE
:103BA000FFF7C0F907B0F0BD2DE9F04381B004463E
:103BB00090F85000012803D1022001B0BDE8F08345
:103BC00001201E4615460F4684F85000FFF77EFA86
:103BD00094F85110814601290CD06068B0F5827FBD
:103BE00076D104294FF0020040F0C680A168002978
:103BF00040F0C280002F4FF0010018BF002D00F0F0
:103C0000BB80002E00F0B88094F8510000210428F9
:103C10001CBF052084F851006165A563E687A6876F
:103C20002763E6862068A6862164616401684906E8
:103C300003D4016841F0400101606168731EE268CD
:103C4000B1FA81F1B3FA83F3DDF8208049095B0909
:103C5000B2F5006F41EA03013CD139B1216B09880B
:103C6000C160B81C2063E08E0138E086012608F1AF
:103C7000010500BFE08E10B9E08F002866D02068F3
:103C8000816889070CD5E18E012E09D141B1216BE4
:103C9000002631F8022BC2602163E18E0139E186F2
:103CA0008168C9070AD0E18F41B1C068A16B0126C4
:103CB00021F8020BA163E08F0138E087FFF706FAD5
:103CC000002DD7D0A0EB09004045D3D3032053E00B
:103CD000022051E039B139780173206B0130206343
:103CE000E08E0138E086012608F10105E08E08B972
:103CF000E08F58B32068816889070DD5E18E012EC9
:103D00000AD149B1216B002609780173206B01307B
:103D10002063E08E0138E08620688168C9070BD0F7
:103D2000E18F49B1C068A16B01260870A06B01301A
:103D3000A063E08F0138E087FFF7C8F9002DD5D0E8
:103D4000A0EB09004045D1D3032015E020464146B1
:103D50004A4601F071FD18B12020606501200BE09A
:103D6000A06800284FF0000006D100902168CA68C2
:103D70000092896800910099012184F85110002176
:103D800084F8501001B0BDE8F083000080B501F068
:103D9000EFFD80BD7047000070470000B0B590F89F
:103DA0003C20012A04BF0220B0BD01F108053CCD32
:103DB000D1E900CE23F47C5322F470521A432EF43E
:103DC000F0431A432CF4E0431A4324F4C0431A434B
:103DD0002A43C96922F480420368114359640021CF
:103DE00080F83C100846B0BD10B590F83C20012A80
:103DF0004FF0020252D0012380F83C3080F83D2081
:103E00000268D2F804E0D2F808C00C682EF0700303
:103E1000234341F2FF74C4F20004A24253600DDC5C
:103E200040F2FF73C4F200039A4215DCB2F1804FF6
:103E300029D040F20043C4F2000322E040F2FF33F5
:103E4000C4F201039A4212DC41F60003C4F20003FB
:103E50009A4218D0002312E040F60003C4F2000397
:103E60009A4210D040F60043C4F2000309E044F245
:103E70000003C4F201039A4205D040F20043C4F2A9
:103E800001039A4204D149682CF0800319439160E0
:103E90000121002280F83D1080F83C20104610BD22
:103EA000002804BF0120704710B5044690F83D007B
:103EB00028B9002084F83C00204600F01FF80220BA
:103EC00084F83D002068211D01F098FD012084F850
:103ED000460084F83E0084F83F0084F8400084F8EF
:103EE000410084F8420084F8430084F8440084F8D8
:103EF000450084F83D00002010BD000080B582B070
:103F000000684FF6FF71C4F20001884224DCB0F172
:103F1000804F40D040F20041C4F20001884250D0AE
:103F200040F60041C4F2000188426AD100200190AD
:103F300043F64000C4F202000168002241F008018B
:103F400001600068002100F0080001900198322013
:103F5000FFF78EFA322073E044F20041C4F201010F
:103F600088423FD040F20041C4F2010188424AD069
:103F70000021C4F20101884243D10020019043F6A0
:103F80004000C4F20200416841F001014160406814
:103F900000F0010022E00020019043F64000C4F24E
:103FA00002000168002241F0010101600068002167
:103FB00000F00100019001981C20FFF759FA1C2025
:103FC0003EE00020019043F64000C4F20200016888
:103FD00041F002010160006800F0020001900198C8
:103FE00002B080BD0020019043F64000C4F2020000
:103FF000416841F400314160406800F400300190B4
:10400000019802B080BD0020019043F64000C4F248
:1040100002004168002241F0020141604068002135
:1040200000F00200019001982B20FFF721FA2B20CD
:10403000FFF71AFA2C2000210022FFF719FA2C2092
:10404000FFF712FA02B080BD90F83D1001291CBFA5
:1040500001207047022180F83D10006841F2FF7294
:10406000C168C4F20002904241F00101C1600DDC60
:1040700040F2FF71C4F20001884215DCB0F1804FBC
:1040800029D040F20041C4F2000122E040F2FF31A9
:10409000C4F20101884212DC41F60001C4F20001C1
:1040A000884218D0002112E040F60001C4F200015D
:1040B000884210D040F60041C4F2000109E044F209
:1040C0000001C4F20101884205D040F20041C4F26F
:1040D0000101884206D1816801F00701062904BF69
:1040E00000207047016841F0010101600020704725
:1040F00010B5044690F83C0001284FF0020008BFBC
:1041000010BD012284F83C2084F83D0020684FF661
:10411000777382689A4382600A684F2A0FDC1F2AED
:1041200022DD202A23D0302A21D0402A4DD14B68CD
:10413000CA68194601F0DEFD206840213BE06F2A85
:1041400017DDB2F5005F20D0B2F5805F2AD0702A6B
:104150003BD1D1E9012CCB68614601F0F3FC20682A
:10416000816841F077011AE00AB1102A2DD1114679
:1041700021E0502A18D0602A27D14B68CA68194616
:1041800001F0CAFD2068602115E0D1E9012CCB685F
:10419000614601F0D7FC2068816841F4804181606C
:1041A00000200BE0002009E04B68CA68194601F0C6
:1041B000A1FD2068502101F0D1FC0020012184F8EC
:1041C0003D10002184F83C1010BD0120F6E70000EE
:1041D0007047000010B5044600680169890744BFB4
:1041E000C1685FEA817138D420680169490744BF1A
:1041F000C1685FEA41713CD420680169090744BF86
:10420000C1685FEA017141D420680169C90644BFF1
:10421000C1685FEAC16145D420680169C9071CBF54
:10422000C1685FEAC1714AD120680169090644BFCB
:10423000C1685FEA016149D420680169490644BF49
:10424000C1685FEA416148D420680169890644BFBA
:10425000C1685FEA816147D410BD6FF0020101615E
:10426000012121778069800745D02046FFF7B0FF04
:1042700047E06FF00401016102212177806910F4A9
:10428000407F41D02046FFF7A3FF43E06FF00801D5
:10429000016104212177C06980073ED02046FFF7E5
:1042A00097FF40E06FF01001016108212177C0699C
:1042B00010F4407F3AD02046FFF78AFF3CE06FF0D1
:1042C00001010161204600F0FBF9ADE76FF08001CC
:1042D00001612046FFF75EFDAEE76FF0400101612E
:1042E000204600F065FAAFE76FF02001016120463B
:1042F000FFF752FD10BD204600F0B6F8204600F052
:104300004BF9002020776FE7204600F0ADF82046FB
:1043100000F042F9002020776EE7204600F0A4F874
:10432000204600F039F9002020776DE7204600F0A4
:104330009BF8204600F030F9002020776CE7000061
:1043400080B586B0006840F2FF31C4F201018842B6
:104350004FF000010591CDE90311CDE9011124DCF5
:1043600040F60001C4F20001884242D00021C4F2AC
:104370000101884276D10020009043F63000C4F25B
:104380000200016841F0100101600068012100F0A5
:104390001000009000984FF40070019040F600402B
:1043A000C4F2020000F5806053E040F20041C4F224
:1043B0000101884235D044F20041C4F20101884233
:1043C00050D10020009043F63000C4F20200016892
:1043D00041F020010160006800F02000009000988A
:1043E0004020019040F60040C4F2020000F5006059
:1043F0002EE00020009043F63000C4F20200016875
:1044000041F0080101600068022100F008000090FE
:1044100000984FF48040019040F60040C4F2020042
:1044200017E00020009043F63000C4F2020001685B
:1044300041F480710160006800F480700090009881
:10444000C020019040F60040C4F2020000F5A050E8
:104450000321022202920022059101A9CDE9032243
:10446000FEF760FD06B080BD70470000B0B50446A1
:1044700090F83C00012804BF0220B0BD0D464FEA71
:10448000B2010120032984F83C0037D8DFE801F0AD
:10449000020A12222068294601F068FB206850F8C1
:1044A000181F0EE02068294601F092FB206850F8A2
:1044B000181F16E02068294601F0C0FB206850F85C
:1044C0001C1F41F008010160016821F00401016036
:1044D00029690FE02068294601F0E4FB206850F8C4
:1044E0001C1F41F400610160016821F480610160DA
:1044F000296909020268114301600020002184F843
:104500003C10B0BD002804BF0120704710B5044620
:1045100090F83D0028B9002084F83C00204600F0C7
:104520001FF8022084F83D002068211D01F066FA82
:10453000012084F8460084F83E0084F83F0084F8A7
:10454000400084F8410084F8420084F8430084F875
:10455000440084F8450084F83D00002010BD0000B0
:1045600081B0006840F60001C4F20001884201D029
:1045700001B070470020009043F64000C4F20200F2
:10458000016841F004010160006800F0040000903F
:10459000009801B0704700007047000010B5044655
:1045A00041B1082909D0042914BF04F1410004F1E4
:1045B0003F0004E004F13E0001E004F14000007817
:1045C00001281CBF012010BD022041B1082909D0DB
:1045D000042914BF84F8410084F83F0004E084F803
:1045E0003E0001E084F840002068012201F098FAC2
:1045F000206841F2FF71C4F2000188420FDC40F2F2
:10460000FF71C4F20001884217DCB0F1804F49D03D
:1046100040F20041C4F20001884243D049E040F238
:10462000FF32C4F20102904214DC41F60003C4F2EE
:104630000003984236D0002314E040F60001C4F293
:10464000000188422ED040F60041C4F200018842A9
:1046500028D02EE044F20003C4F20103984221D096
:1046600040F20043C4F20103984222D1436C8842D5
:1046700043F400434364C2DD904207DC41F600018D
:10468000C4F2000188420DD0002107E044F200018D
:10469000C4F20101884205D040F20041C4F2010198
:1046A000884206D1816801F00701062904BF002075
:1046B00010BD016841F001010160002010BD000043
:1046C00040F25461C2F20001884218BF704770B5D1
:1046D000D0B040F66000C2F2000009F02DFD90F865
:1046E00021004FF40051421E41F20000C4F20200CA
:1046F00018BF0122FEF7E4FC40F28805C2F2000573
:1047000028784CF6CD420130C1B2C72988BF0020BD
:10471000C1B2CCF6CC42514346F266624FEAF10197
:10472000C0F26662914228701ED840F66004C2F260
:104730000004204609F010FD08F0F0FF01688A68C7
:1047400040F64051C0F203019047204609F0FCFCBE
:104750000146684606F012FB9DF86B60204609F0A2
:10476000F7FC07F039FD067028784AF6AB21CAF647
:10477000AA214843B0F1553F0AD840F66000C2F282
:10478000000009F0D5FC01688A6843F2CD719047BA
:1047900040F66000C2F2000009F0D2FC01688A68AD
:1047A00041F28831904750B0BDE87040704700003A
:1047B000704700007047000070470000B0B582B03D
:1047C000036804461868D9685A6900F02F05202D3F
:1047D00001F0200505D125B1204601F045FB02B0CE
:1047E000B0BD5FEA007C1EBF02F0010E01F49072C2
:1047F00012EB0E0248D1226B0840C1063BD5012ABC
:1048000039D10020019018680190586801900198F2
:104810005869400640D4A08DE18DE28D002A1CBF6E
:10482000401A5FEA004101D102B0B0BD216851E8F1
:10483000031F226821F4907142E80313002BF5D185
:10484000216851E8051F226821F0010142E80513A3
:10485000002BF5D1202184F83E100021216300BFF8
:10486000216851E8031F226821F0100142E8031378
:10487000002BF5D152E0010656D44006D4D520468F
:1048800001F0D8FA02B0B0BDC20718BF11F48072AF
:104890004FD1420753D459E0A06B016849688AB2EE
:1048A000002AC1D0A38D9A42BED2E185C069B0F57D
:1048B000807F30D0206850E8030F216820F480709A
:1048C00041E80302002AF5D1206850E8050F21686D
:1048D00020F0010041E80502002AF5D1206850E8E7
:1048E000050F216820F0400041E80502002AF5D1BB
:1048F000202084F83E000020206300BF206850E89C
:10490000030F216820F0100041E80302002AF5D1CE
:10491000A06BFEF745F8A08DE18D401A81B22046CC
:10492000FFF748FF02B0B0BD204601F06DFB02B0BA
:10493000B0BD226C42F001022264420706D5BEF1EE
:10494000000F03D0226C42F002022264820706D5D7
:10495000BEF1000F03D0226C42F004022264BCF1CD
:10496000000F06D55EEA050203D0226C42F0080271
:104970002264226C002A3FF457AF0840800602D51B
:10498000204601F071FA20684069216C00F0400077
:1049900001F00801401827D0204601F023FA2068D2
:1049A000406940061BD500BF206850E8050F21680C
:1049B00020F0400041E80502002AF5D1A06B70B15B
:1049C00045F63D51C0F600010165FEF729F80028C3
:1049D0003FF42AAFA06B016D884702B0B0BD2046FE
:1049E000FFF7EAFE02B0B0BD2046FFF7E5FE00206B
:1049F000206402B0B0BD0000002804BF0120704751
:104A000010B5044690F83D0028B9002084F83C0019
:104A1000204600F021F8242084F83D002068C16879
:104A200021F40051C160204601F080FA206801693C
:104A300021F490410161416921F02A014161C1687D
:104A400041F40051C16000202021206484F83D1011
:104A500084F83E1010BD00002DE9F04F87B00446E9
:104A6000006844F60001C4F2000100268842CDE946
:104A70000566CDE90366029600F0968041F200419A
:104A8000C4F20101884200F0DE8041F20001C4F26C
:104A90000101884240F04D81002743F63000019724
:104AA000C4F202004169002541F0100141614169F1
:104AB000C4F2020501F0100101910199019701680A
:104AC00002AE41F002010160016846F2280801F0DF
:104AD000020101910199019701684FF0020941F02B
:104AE0000101016000684FF0030A00F0010001902D
:104AF0000198802002904FF0070B05F58060314649
:104B0000C4F20208CDE90397CDF814A0CDF818B08F
:104B1000FEF708FA4FF40070CDE9020904A880E816
:104B2000800C28463146FEF7FDF940F2EC2508F5E9
:104B30009260C2F200054FF0006A4021C5E9000A08
:104B400005F108004FF4806980E882024FF4403696
:104B50002846C5E90577EF61C5E90867FEF738F82B
:104B6000002818BFFDF7B8F86563AC6340F28C25E8
:104B700008F58360C2F200054FF48071C5E9000AB0
:104B80002846C5E90277C5E90497C5E90671C5E974
:104B90000867FEF71DF8002818BFFDF79DF8A5630C
:104BA00005F138002525BBE043F630000196C4F23C
:104BB0000200016941F480210161016901F4802151
:104BC000019101990196016841F0040101600068BA
:104BD00002A900F00400019001984FF44060029097
:104BE0000220CDE90306032005900720069000204F
:104BF000C4F2020000F50060FEF794F940F24C3573
:104C000046F22800C2F20005C4F202004FF0006133
:104C100085E843004FF440304FF480624FF48073D6
:104C2000C5E908062846C5E90362C5E90566EB61E2
:104C3000FDF7CEFF002818BFFDF74EF8A56305F17C
:104C4000380027256CE0002643F630000196C4F2B8
:104C50000200416946F2280841F0200141614169A2
:104C6000C4F2020801F02001019101990196016846
:104C700041F040010160006802A900F0400001908D
:104C800001984FF4844002900220CDE903060320EE
:104C90000590082006900020C4F2020000F5C050E4
:104CA000FEF740F940F2AC3508F58060C2F200052D
:104CB0004FF0206A4FF480694FF48071C5E9000A13
:104CC0004FF440372846C5E90266C5E90496C5E9B0
:104CD0000661C5E90876FDF77BFF002818BFFCF7E1
:104CE000FBFFA563AC6340F20C4508F58F60C2F290
:104CF00000054021C5E9000A05F1080080E84202EC
:104D00002846C5E90566C5E907676E62FDF760FFDD
:104D1000002818BFFCF7E0FF656305F13800472560
:104D20000460284600210022FEF7A2FB2846FEF779
:104D30009BFB07B0BDE8F08F7047000070B50446DC
:104D400090F83D0020280AD14FF00100D9B3002A85
:104D5000134608BF70BD94F83C00012801D1022021
:104D600070BD012084F83C00002621202162A3842C
:104D7000E384266484F83D002268606B45F6995C04
:104D800045F6D95E45F64D55C0F6000CC0F6000E4E
:104D9000C0F600050432C0E90FCEC0E91356FDF796
:104DA0007FFF20686FF04001016084F83C6000BF25
:104DB000206850E8050F216840F0800041E80502B6
:104DC000002AF5D1002070BD704700007047000038
:104DD000FEE70000B0B584B040F2AC1042F2000132
:104DE00001230024C2F20000C4F20101C0F60073E6
:104DF0000125CDE90244CDE900444FF48032047628
:104E000080F82040C0E90A34C56180F8304080E86D
:104E10001600C0E903444561FDF70AF9002818BFF0
:104E2000FCF75AFF1020CDE9000540F2AC10C2F2A9
:104E3000000069460294FDF777F8002818BFFCF7D8
:104E40004BFF04B0B0BD0000B0B584B040F2F41028
:104E500042F2002101230024C2F20000C4F2010149
:104E6000C0F600730125CDE90244CDE900444FF4BA
:104E70008032047680F82040C0E90A34C56180F8A9
:104E8000304080E81600C0E903444561FDF7D0F8E2
:104E9000002818BFFCF720FF0820CDE9000540F2EC
:104EA000F410C2F2000069460294FDF73DF80028B4
:104EB00018BFFCF711FF04B0B0BD000080B540F290
:104EC0003C2046F20041C2F20000C4F2000103227D
:104ED000002380E80E0000F10C014FF4102C4FF479
:104EE000001E81E8085083618383FDF79DFB002845
:104EF00018BFFCF7F1FE80BD80B540F2642046F695
:104F00000001C2F20000C4F200010322002380E885
:104F10000E0000F10C014FF4102C4FF4001E81E83C
:104F2000085083618383FDF77FFB002818BFFCF7DF
:104F3000D3FE80BD80B582B0002043F630010190E1
:104F4000C4F202010A6842F400120A600A6802F41C
:104F500000120192019A00900868002240F480003B
:104F600008600868002100F48000009000980C2080
:104F7000FEF77EFA0C20FEF777FA39200021002296
:104F8000FEF776FA3920FEF76FFA3A200021002268
:104F9000FEF76EFA3A20FEF767FA4520002100225C
:104FA000FEF766FA4520FEF75FFA46200021002250
:104FB000FEF75EFA4620FEF757FA02B080BD000009
:104FC0002DE9F04F87B0002543F630000695CDE976
:104FD0000455CDE902550195C4F20200016840F282
:104FE000000B41F0020101600168C4F2020B01F004
:104FF000020101910199019501680BF5006A41F0E8
:10500000400101600168002201F040010191019915
:10501000019501684FF4807641F00101016001685B
:1050200001F00101019101990195016841F0080128
:105030000160016801F00801019101990195016881
:1050400041F004010160016801F00401019101993E
:105050000195016841F480710160016801F480717B
:10506000019101990195016841F0200101600168F9
:1050700001F02001019101990195016841F0800141
:105080000160016801F080010191019901950168B9
:1050900041F01001016000684FF4807100F01000D1
:1050A000019001985046FEF70BF80BF5C0573846B3
:1050B000402101224FF00108FEF702F80BF5E05401
:1050C00020464FF4E0510022FDF7FAFF5846102128
:1050D0000122FDF7F5FF0BF5805948464FF4D0410A
:1050E0000022FDF7EDFF0BF5806041F20101012286
:1050F0000090FDF7E5FFCDE9026802AE504631466B
:10510000CDE90455FDF70EFF4020CDE902083846F1
:105110003146CDE90455FDF705FF4FF4E050CDE9E8
:10512000020820463146CDE90455FDF7FBFE082074
:1051300002904FF4041438463146CDE90348FDF798
:10514000F1FE4FF48810CDE9030558463146CDF8FD
:105150000880FDF7E7FE1020CDE902080227584637
:105160003146CDF810800597FDF7DCFE302002A90E
:1051700081E8110150463146FDF7D4FE4FF4D0408E
:10518000CDE9020848463146CDE90475FDF7CAFE6F
:1051900041F20100CDE9020800983146CDE90487CB
:1051A000FDF7C0FE062000210022FEF761F906206F
:1051B000FEF75AF9092000210022FEF759F90920CB
:1051C000FEF752F90A2000210022FEF751F90A20C9
:1051D000FEF74AF9172000210022FEF749F91720AF
:1051E000FEF742F907B0BDE8F08F000080B540F24D
:1051F0006C4045F60001C2F20000C4F2000141F625
:10520000802200234FF4804CC0F2060280E80E009A
:10521000C0E9033CC0E90533C0E90733FDF75CFF93
:10522000002818BFFCF758FD80BD000080B540F293
:10523000C04045F60041C2F20000C4F2000141F650
:10524000802200234FF4804CC0F2060280E80E005A
:10525000C0E9033CC0E90533C0E90733FDF73CFF73
:10526000002818BFFCF738FD80BD0000B0B540F243
:10527000145043F20001C2F20000C4F201014FF4E5
:105280008272002380E80E0000F10C014FF0020C46
:105290004FF0010E4FF40074182581E808500A21E0
:1052A000C0E90645C0E90833C0E90A31FEF7A6FBAC
:1052B000002818BFFCF710FDB0BD000080B540F21B
:1052C0006C5043F60001C2F20000C4F200014FF43A
:1052D0008272002380E80E0000F114014FF4007C7C
:1052E0004FF0100E81E808500A21C0E90333C0E9ED
:1052F0000833C0E90A31FEF781FB002818BFFCF72C
:10530000EBFC80BD80B588B040F20C6044F20042F6
:105310000021C2F20000C4F20102A72340F2CF7CB8
:105320000791CDE90511CDE90311CDE90111C0E9DE
:105330000023C0E9021C01618161FEF7B1FD002874
:1053400018BFFCF7C9FC40F20C60C2F20000FFF786
:10535000D9F8002818BFFCF7BFFC6020019000209E
:10536000CDE90200059040F20C60C2F2000001A9F4
:105370000022FFF77BF8002818BFFCF7ADFC40F2D5
:105380000C60C2F20000FEF7DBFF08B080BD000039
:1053900010B596B040F2C45000220021C2F20000C5
:1053A000C4F20102A72344F61F641591CDE913113D
:1053B000CDE91111CDE90F11CDE90D11CDE90B1199
:1053C000CDE90911CDE90711CDE90511CDE90311A9
:1053D000CDE90111C0E90023C0E90214C0E90411BC
:1053E0008161FEF75DFD002818BFFCF775FC4FF4E6
:1053F0008050129040F2C450C2F2000012A9FEF791
:1054000077FE002818BFFCF767FC40F2C450C2F2D8
:105410000000FFF777F8002818BFFCF75DFC40F2AA
:10542000C4500024C2F2000010A9CDE91044FEF7D8
:10543000DBFC002818BFFCF74FFC6020CDE9090415
:1054400040F2C450C2F2000009A90022CDE90B4489
:10545000CDE90D440F94FFF709F8002818BFFCF7B9
:105460003BFC00200590CDE90300CDE901004FF49D
:105470000051089040F2C4500691C2F2000001A908
:10548000FEF78CFC002818BFFCF726FC40F2C45045
:10549000C2F20000FEF754FF16B010BD80B586B012
:1054A00040F254600021C2F200004FF080425323CA
:1054B00041F2873CCDE90411CDE90211CDE900119B
:1054C000C0E90023C0E9021C01618161FEF7E8FC2C
:1054D000002818BFFCF700FC4FF48050029040F207
:1054E0005460C2F2000002A9FEF702FE002818BFB5
:1054F000FCF7F2FB0020CDE9000040F25460C2F25C
:1055000000006946FEF770FC002818BFFCF7E4FBBA
:1055100006B080BD10B58AB040F29C6040F6000134
:105520000024C2F20000C4F200014FF47A7309941F
:10553000CDE90744CDE90544CDE90344CDE9014473
:10554000532280E81600C0E903348461FEF7DAFFD5
:10555000002818BFFCF7C0FB40F29C60C2F20000BC
:1055600008A9CDE90844FEF73FFC002818BFFCF766
:10557000B3FB602001900020CDE90200059040F2CD
:105580009C60C2F2000001A90822FEF76FFF00280C
:1055900018BFFCF7A1FB40F29C60C2F20000FEF7CE
:1055A000CFFE0AB010BD000080B586B040F2E460C6
:1055B00040F600420021C2F20000C4F20002532370
:1055C0004FF0FF3CCDE90411CDE90211CDE9001106
:1055D000C0E90023C0E9021C01618161FEF760FCA3
:1055E000002818BFFCF778FB4FF48050029040F27F
:1055F000E460C2F2000002A9FEF77AFD002818BF9D
:10560000FCF76AFB0020CDE9000040F2E460C2F242
:1056100000006946FEF7E8FB002818BFFCF75CFBBA
:1056200006B080BD10B596B040F22C7040F200423A
:105630000021C2F20000C4F20102A72344F61F6455
:105640001591CDE91311CDE91111CDE90F11CDE976
:105650000D11CDE90B11CDE90911CDE90711CDE906
:105660000511CDE90311CDE90111C0E90023C0E91D
:105670000214C0E904118161FEF712FC002818BF72
:10568000FCF72AFB4FF48050129040F22C70C2F2CB
:10569000000012A9FEF72CFD002818BFFCF71CFB28
:1056A00040F22C70C2F20000FEF72CFF002818BF59
:1056B000FCF712FB40F22C700024C2F2000010A98B
:1056C000CDE91044FEF790FB002818BFFCF704FB5F
:1056D0006020CDE9090440F22C70C2F2000009A953
:1056E0000422CDE90B44CDE90D440F94FEF7BEFE34
:1056F000002818BFFCF7F0FA40F22C70C2F200004C
:1057000009A90822FEF7B2FE002818BFFCF7E4FA48
:1057100000200590CDE90300CDE901004FF40051D0
:10572000089040F22C700691C2F2000001A9FEF729
:1057300035FB002818BFFCF7CFFA40F22C70C2F2FC
:105740000000FEF7FDFD16B010BD000080B540F270
:10575000747041F20001C2F20000C4F201010023A2
:105760004FF00C0C4FF4E13280E80E00C0E9033337
:10577000C0E905C3C361FFF73FF9002818BFFCF774
:10578000ABFA80BD10B540F2B87044F6000C48F298
:10579000A062C2F20000C4F2000CC0F201024FF499
:1057A000805300214FF4806E0424C0E900C2C0E998
:1057B0000231C0E904E4C0E90611FFF71DF9002831
:1057C00018BFFCF789FA10BD80B540F2FC7041F2B9
:1057D0000041C2F20000C4F2010100234FF00C0CA2
:1057E0004FF4E13280E80E00C0E90333C0E905C39D
:1057F000C361FFF701F9002818BFFCF76DFA80BDFF
:10580000FEE70000FEE7000000F0070080F007035D
:10581000042B28BF04234FF0FF3C03380CFA03F39A
:1058200038BF0020994381400CFA00F022EA0000C2
:10583000084370477047000010B582B040F2000383
:10584000C2F200031B6849F68174C1F25E64A3FBD7
:10585000043C04464FEA5C504FF47A73584301907D
:105860006068B0F5827F0DD113460A46204680213C
:1058700000F014F878B1606D40F0200060650320FE
:1058800002B010BD019830B1019801380190206834
:1058900080680006F6D4002002B010BD2DE9F04368
:1058A00081B01E4690460D468146FDF70FFC301A2A
:1058B00000EB0807FDF70AFC40F20001C2F200010C
:1058C0000968C1F3CB3179430091D9F80010896898
:1058D0002940A94219D1064608F1010406E000BF9B
:1058E000D9F8000080682840A8420ED1002CF7D0DB
:1058F000FDF7ECFB801BB8420BD200980099002802
:1059000008BF0746481E0090EAE7002001B0BDE846
:10591000F083D9E900014268B1F5827F22F0E0020C
:1059200042600BD1D9F80810B1F5004F02D0B1F5A3
:10593000806F03D1016821F040010160D9F828107F
:10594000B1F5005F07D1016821F4005101600168E1
:1059500041F400510160012089F85100002089F8CC
:105960005000032001B0BDE8F08300007047000044
:10597000B0B501380024B4EB106F1CBF0120B0BDDE
:105980004EF21005CEF2000568604FF0FF300F2197
:105990000AF0F8F90720AC6028602046B0BD00008E
:1059A00080B5FDF7F3FC80BD4EF68850CEF20000C6
:1059B000016841F4700101607047000080B540F259
:1059C0005460C2F20000FEF705FC80BD80B540F2D5
:1059D000E460C2F20000FEF7FDFB80BD80B540F23E
:1059E0002C70C2F20000FEF7F5FB80BD80B540F2DE
:1059F0002C70C2F20000FEF7EDFB80BD10B540F642
:105A0000FF3E0368C4F2000E40F2004C7045C4F241
:105A1000010C0FDCB0F1804F19D040F20042C4F20B
:105A20000002904213D040F60002C4F200029042FD
:105A30000DD010E040F60042C4F20002904206D0C1
:105A4000604504D00022C4F20102904203D14A68AA
:105A500023F07003134341F6FF72C4F20002904238
:105A60000DDC70451FDCB0F1804F41D040F20042A8
:105A7000C4F2000290423BD040F6000221E043F61F
:105A8000FF72C4F20102904220DC42F20002C4F232
:105A9000000290422CD00022C4F20102904227D092
:105AA000604525D028E040F60042C4F20002904252
:105AB0001ED041F60002C4F20002904218D041F616
:105AC0000042C4F20002904212D015E044F20002FB
:105AD000C4F2010290420BD044F60002C4F201026B
